{
  "address": "0xe2972FDC2E623f6e88d90469c15B9ff1e7A166c9",
  "abi": [
    {
      "inputs": [
        {
          "internalType": "uint256",
          "name": "_lockTime",
          "type": "uint256"
        },
        {
          "internalType": "address",
          "name": "dataFeedAddr",
          "type": "address"
        }
      ],
      "stateMutability": "nonpayable",
      "type": "constructor"
    },
    {
      "inputs": [],
      "name": "MINIMUM_VALUE",
      "outputs": [
        {
          "internalType": "uint256",
          "name": "",
          "type": "uint256"
        }
      ],
      "stateMutability": "view",
      "type": "function"
    },
    {
      "inputs": [],
      "name": "TARGET",
      "outputs": [
        {
          "internalType": "uint256",
          "name": "",
          "type": "uint256"
        }
      ],
      "stateMutability": "view",
      "type": "function"
    },
    {
      "inputs": [],
      "name": "dataFeed",
      "outputs": [
        {
          "internalType": "contract AggregatorV3Interface",
          "name": "",
          "type": "address"
        }
      ],
      "stateMutability": "view",
      "type": "function"
    },
    {
      "inputs": [],
      "name": "fund",
      "outputs": [],
      "stateMutability": "payable",
      "type": "function"
    },
    {
      "inputs": [
        {
          "internalType": "address",
          "name": "",
          "type": "address"
        }
      ],
      "name": "fundersToAmount",
      "outputs": [
        {
          "internalType": "uint256",
          "name": "",
          "type": "uint256"
        }
      ],
      "stateMutability": "view",
      "type": "function"
    },
    {
      "inputs": [],
      "name": "getChainlinkDataFeedLatestAnswer",
      "outputs": [
        {
          "internalType": "int256",
          "name": "",
          "type": "int256"
        }
      ],
      "stateMutability": "view",
      "type": "function"
    },
    {
      "inputs": [],
      "name": "getFund",
      "outputs": [],
      "stateMutability": "nonpayable",
      "type": "function"
    },
    {
      "inputs": [],
      "name": "getFundSuccess",
      "outputs": [
        {
          "internalType": "bool",
          "name": "",
          "type": "bool"
        }
      ],
      "stateMutability": "view",
      "type": "function"
    },
    {
      "inputs": [],
      "name": "owner",
      "outputs": [
        {
          "internalType": "address",
          "name": "",
          "type": "address"
        }
      ],
      "stateMutability": "view",
      "type": "function"
    },
    {
      "inputs": [],
      "name": "refund",
      "outputs": [],
      "stateMutability": "nonpayable",
      "type": "function"
    },
    {
      "inputs": [
        {
          "internalType": "address",
          "name": "_erc20Addr",
          "type": "address"
        }
      ],
      "name": "setErc20Addr",
      "outputs": [],
      "stateMutability": "nonpayable",
      "type": "function"
    },
    {
      "inputs": [
        {
          "internalType": "address",
          "name": "funder",
          "type": "address"
        },
        {
          "internalType": "uint256",
          "name": "amountToUpdate",
          "type": "uint256"
        }
      ],
      "name": "setFunderToAmount",
      "outputs": [],
      "stateMutability": "nonpayable",
      "type": "function"
    },
    {
      "inputs": [
        {
          "internalType": "address",
          "name": "newOwner",
          "type": "address"
        }
      ],
      "name": "transferOwnership",
      "outputs": [],
      "stateMutability": "nonpayable",
      "type": "function"
    }
  ],
  "transactionHash": "0x24b4aeba89e0a99251de3036224861e9c35bc59e4e611fbea757e0a31db4336e",
  "args": [
    180,
    "0x694AA1769357215DE4FAC081bf1f309aDC325306"
  ],
  "numDeployments": 1,
  "solcInputHash": "1e32ffb98604e4d5d6f19748193716ca",
  "bytecode": "0x60806040526000600560146101000a81548160ff02191690831515021790555034801561002b57600080fd5b506040516116a33803806116a3833981810160405281019061004d919061017d565b80600160006101000a81548173ffffffffffffffffffffffffffffffffffffffff021916908373ffffffffffffffffffffffffffffffffffffffff16021790555033600260006101000a81548173ffffffffffffffffffffffffffffffffffffffff021916908373ffffffffffffffffffffffffffffffffffffffff160217905550426003819055508160048190555050506101bd565b600080fd5b6000819050919050565b6100fc816100e9565b811461010757600080fd5b50565b600081519050610119816100f3565b92915050565b600073ffffffffffffffffffffffffffffffffffffffff82169050919050565b600061014a8261011f565b9050919050565b61015a8161013f565b811461016557600080fd5b50565b60008151905061017781610151565b92915050565b60008060408385031215610194576101936100e4565b5b60006101a28582860161010a565b92505060206101b385828601610168565b9150509250929050565b6114d7806101cc6000396000f3fe6080604052600436106100c25760003560e01c8063b60d42881161007f578063d39cf00611610059578063d39cf00614610211578063da4658e01461023a578063da5ea4ee14610265578063f2fde38b14610290576100c2565b8063b60d4288146101b1578063bea4dfb5146101bb578063cc1f2afa146101e6576100c2565b806313ffff01146100c7578063590e1ae3146100f05780638da5cb5b146101075780638edd6eb6146101325780639e42ff90146101495780639f883a0514610174575b600080fd5b3480156100d357600080fd5b506100ee60048036038101906100e99190610c54565b6102b9565b005b3480156100fc57600080fd5b5061010561038d565b005b34801561011357600080fd5b5061011c6105e6565b6040516101299190610c90565b60405180910390f35b34801561013e57600080fd5b5061014761060c565b005b34801561015557600080fd5b5061015e61080e565b60405161016b9190610d0a565b60405180910390f35b34801561018057600080fd5b5061019b60048036038101906101969190610c54565b610834565b6040516101a89190610d3e565b60405180910390f35b6101b961084c565b005b3480156101c757600080fd5b506101d0610948565b6040516101dd9190610d72565b60405180910390f35b3480156101f257600080fd5b506101fb6109e9565b6040516102089190610d3e565b60405180910390f35b34801561021d57600080fd5b5061023860048036038101906102339190610db9565b6109f6565b005b34801561024657600080fd5b5061024f610acd565b60405161025c9190610e14565b60405180910390f35b34801561027157600080fd5b5061027a610ae0565b6040516102879190610d3e565b60405180910390f35b34801561029c57600080fd5b506102b760048036038101906102b29190610c54565b610aed565b005b600260009054906101000a900473ffffffffffffffffffffffffffffffffffffffff1673ffffffffffffffffffffffffffffffffffffffff163373ffffffffffffffffffffffffffffffffffffffff1614610349576040517f08c379a000000000000000000000000000000000000000000000000000000000815260040161034090610eb2565b60405180910390fd5b80600560006101000a81548173ffffffffffffffffffffffffffffffffffffffff021916908373ffffffffffffffffffffffffffffffffffffffff16021790555050565b60045460035461039d9190610f01565b4210156103df576040517f08c379a00000000000000000000000000000000000000000000000000000000081526004016103d690610f81565b60405180910390fd5b683635c9adc5dea000006103f247610bc1565b10610432576040517f08c379a000000000000000000000000000000000000000000000000000000000815260040161042990610fed565b60405180910390fd5b60008060003373ffffffffffffffffffffffffffffffffffffffff1673ffffffffffffffffffffffffffffffffffffffff16815260200190815260200160002054036104b3576040517f08c379a00000000000000000000000000000000000000000000000000000000081526004016104aa90611059565b60405180910390fd5b60003373ffffffffffffffffffffffffffffffffffffffff166000803373ffffffffffffffffffffffffffffffffffffffff1673ffffffffffffffffffffffffffffffffffffffff16815260200190815260200160002054604051610517906110aa565b60006040518083038185875af1925050503d8060008114610554576040519150601f19603f3d011682016040523d82523d6000602084013e610559565b606091505b5050809150508061059f576040517f08c379a00000000000000000000000000000000000000000000000000000000081526004016105969061110b565b60405180910390fd5b60008060003373ffffffffffffffffffffffffffffffffffffffff1673ffffffffffffffffffffffffffffffffffffffff1681526020019081526020016000208190555050565b600260009054906101000a900473ffffffffffffffffffffffffffffffffffffffff1681565b60045460035461061c9190610f01565b42101561065e576040517f08c379a000000000000000000000000000000000000000000000000000000000815260040161065590610f81565b60405180910390fd5b600260009054906101000a900473ffffffffffffffffffffffffffffffffffffffff1673ffffffffffffffffffffffffffffffffffffffff163373ffffffffffffffffffffffffffffffffffffffff16146106ee576040517f08c379a00000000000000000000000000000000000000000000000000000000081526004016106e590610eb2565b60405180910390fd5b683635c9adc5dea0000061070147610bc1565b1015610742576040517f08c379a000000000000000000000000000000000000000000000000000000000815260040161073990611177565b60405180910390fd5b60003373ffffffffffffffffffffffffffffffffffffffff1647604051610768906110aa565b60006040518083038185875af1925050503d80600081146107a5576040519150601f19603f3d011682016040523d82523d6000602084013e6107aa565b606091505b505080915050806107f0576040517f08c379a00000000000000000000000000000000000000000000000000000000081526004016107e79061110b565b60405180910390fd5b6001600560146101000a81548160ff02191690831515021790555050565b600160009054906101000a900473ffffffffffffffffffffffffffffffffffffffff1681565b60006020528060005260406000206000915090505481565b68056bc75e2d6310000061085f34610bc1565b10156108a0576040517f08c379a0000000000000000000000000000000000000000000000000000000008152600401610897906111e3565b60405180910390fd5b6004546003546108b09190610f01565b42106108f1576040517f08c379a00000000000000000000000000000000000000000000000000000000081526004016108e89061124f565b60405180910390fd5b346000803373ffffffffffffffffffffffffffffffffffffffff1673ffffffffffffffffffffffffffffffffffffffff168152602001908152602001600020600082825461093f9190610f01565b92505081905550565b600080600160009054906101000a900473ffffffffffffffffffffffffffffffffffffffff1673ffffffffffffffffffffffffffffffffffffffff1663feaf968c6040518163ffffffff1660e01b815260040160a060405180830381865afa1580156109b8573d6000803e3d6000fd5b505050506040513d601f19601f820116820180604052508101906109dc91906112f2565b5050509150508091505090565b683635c9adc5dea0000081565b600560009054906101000a900473ffffffffffffffffffffffffffffffffffffffff1673ffffffffffffffffffffffffffffffffffffffff163373ffffffffffffffffffffffffffffffffffffffff1614610a86576040517f08c379a0000000000000000000000000000000000000000000000000000000008152600401610a7d906113df565b60405180910390fd5b806000808473ffffffffffffffffffffffffffffffffffffffff1673ffffffffffffffffffffffffffffffffffffffff168152602001908152602001600020819055505050565b600560149054906101000a900460ff1681565b68056bc75e2d6310000081565b600260009054906101000a900473ffffffffffffffffffffffffffffffffffffffff1673ffffffffffffffffffffffffffffffffffffffff163373ffffffffffffffffffffffffffffffffffffffff1614610b7d576040517f08c379a0000000000000000000000000000000000000000000000000000000008152600401610b7490610eb2565b60405180910390fd5b80600260006101000a81548173ffffffffffffffffffffffffffffffffffffffff021916908373ffffffffffffffffffffffffffffffffffffffff16021790555050565b600080610bcc610948565b90506305f5e1008184610bdf91906113ff565b610be99190611470565b915050919050565b600080fd5b600073ffffffffffffffffffffffffffffffffffffffff82169050919050565b6000610c2182610bf6565b9050919050565b610c3181610c16565b8114610c3c57600080fd5b50565b600081359050610c4e81610c28565b92915050565b600060208284031215610c6a57610c69610bf1565b5b6000610c7884828501610c3f565b91505092915050565b610c8a81610c16565b82525050565b6000602082019050610ca56000830184610c81565b92915050565b6000819050919050565b6000610cd0610ccb610cc684610bf6565b610cab565b610bf6565b9050919050565b6000610ce282610cb5565b9050919050565b6000610cf482610cd7565b9050919050565b610d0481610ce9565b82525050565b6000602082019050610d1f6000830184610cfb565b92915050565b6000819050919050565b610d3881610d25565b82525050565b6000602082019050610d536000830184610d2f565b92915050565b6000819050919050565b610d6c81610d59565b82525050565b6000602082019050610d876000830184610d63565b92915050565b610d9681610d25565b8114610da157600080fd5b50565b600081359050610db381610d8d565b92915050565b60008060408385031215610dd057610dcf610bf1565b5b6000610dde85828601610c3f565b9250506020610def85828601610da4565b9150509250929050565b60008115159050919050565b610e0e81610df9565b82525050565b6000602082019050610e296000830184610e05565b92915050565b600082825260208201905092915050565b7f746869732066756e6374696f6e2063616e206f6e6c792062652063616c6c656460008201527f206279206f776e65720000000000000000000000000000000000000000000000602082015250565b6000610e9c602983610e2f565b9150610ea782610e40565b604082019050919050565b60006020820190508181036000830152610ecb81610e8f565b9050919050565b7f4e487b7100000000000000000000000000000000000000000000000000000000600052601160045260246000fd5b6000610f0c82610d25565b9150610f1783610d25565b9250828201905080821115610f2f57610f2e610ed2565b5b92915050565b7f77696e646f77206973206e6f7420636c6f736564000000000000000000000000600082015250565b6000610f6b601483610e2f565b9150610f7682610f35565b602082019050919050565b60006020820190508181036000830152610f9a81610f5e565b9050919050565b7f54617267657420697320726561636865642e0000000000000000000000000000600082015250565b6000610fd7601283610e2f565b9150610fe282610fa1565b602082019050919050565b6000602082019050818103600083015261100681610fca565b9050919050565b7f7468657265206973206e6f2066756e6420666f7220796f750000000000000000600082015250565b6000611043601883610e2f565b915061104e8261100d565b602082019050919050565b6000602082019050818103600083015261107281611036565b9050919050565b600081905092915050565b50565b6000611094600083611079565b915061109f82611084565b600082019050919050565b60006110b582611087565b9150819050919050565b7f7472616e73666572207478206661696c65642e00000000000000000000000000600082015250565b60006110f5601383610e2f565b9150611100826110bf565b602082019050919050565b60006020820190508181036000830152611124816110e8565b9050919050565b7f546172676574206973206e6f7420726561636865642e00000000000000000000600082015250565b6000611161601683610e2f565b915061116c8261112b565b602082019050919050565b6000602082019050818103600083015261119081611154565b9050919050565b7f53656e64206d6f72652045544800000000000000000000000000000000000000600082015250565b60006111cd600d83610e2f565b91506111d882611197565b602082019050919050565b600060208201905081810360008301526111fc816111c0565b9050919050565b7f77696e646f7720697320636c6f73656400000000000000000000000000000000600082015250565b6000611239601083610e2f565b915061124482611203565b602082019050919050565b600060208201905081810360008301526112688161122c565b9050919050565b600069ffffffffffffffffffff82169050919050565b61128e8161126f565b811461129957600080fd5b50565b6000815190506112ab81611285565b92915050565b6112ba81610d59565b81146112c557600080fd5b50565b6000815190506112d7816112b1565b92915050565b6000815190506112ec81610d8d565b92915050565b600080600080600060a0868803121561130e5761130d610bf1565b5b600061131c8882890161129c565b955050602061132d888289016112c8565b945050604061133e888289016112dd565b935050606061134f888289016112dd565b92505060806113608882890161129c565b9150509295509295909350565b7f596f7520646f206e6f742068617665207065726d697373696f6e20746f20636160008201527f6c6c20746869732066756e6374696f6e00000000000000000000000000000000602082015250565b60006113c9603083610e2f565b91506113d48261136d565b604082019050919050565b600060208201905081810360008301526113f8816113bc565b9050919050565b600061140a82610d25565b915061141583610d25565b925082820261142381610d25565b9150828204841483151761143a57611439610ed2565b5b5092915050565b7f4e487b7100000000000000000000000000000000000000000000000000000000600052601260045260246000fd5b600061147b82610d25565b915061148683610d25565b92508261149657611495611441565b5b82820490509291505056fea264697066735822122061bca37981e8d4b52708deb7ca1a9bf5bb43bb96357643af9611753ce63e717364736f6c634300081c0033",
  "devdoc": {
    "kind": "dev",
    "methods": {},
    "version": 1
  },
  "userdoc": {
    "kind": "user",
    "methods": {
      "getChainlinkDataFeedLatestAnswer()": {
        "notice": "Returns the latest answer."
      }
    },
    "version": 1
  },
  "storageLayout": {
    "storage": [
      {
        "astId": 53,
        "contract": "contracts/FundMe.sol:FundMe",
        "label": "fundersToAmount",
        "offset": 0,
        "slot": "0",
        "type": "t_mapping(t_address,t_uint256)"
      },
      {
        "astId": 56,
        "contract": "contracts/FundMe.sol:FundMe",
        "label": "dataFeed",
        "offset": 0,
        "slot": "1",
        "type": "t_contract(AggregatorV3Interface)45"
      },
      {
        "astId": 72,
        "contract": "contracts/FundMe.sol:FundMe",
        "label": "owner",
        "offset": 0,
        "slot": "2",
        "type": "t_address"
      },
      {
        "astId": 74,
        "contract": "contracts/FundMe.sol:FundMe",
        "label": "deploymentTimestamp",
        "offset": 0,
        "slot": "3",
        "type": "t_uint256"
      },
      {
        "astId": 76,
        "contract": "contracts/FundMe.sol:FundMe",
        "label": "lockTime",
        "offset": 0,
        "slot": "4",
        "type": "t_uint256"
      },
      {
        "astId": 78,
        "contract": "contracts/FundMe.sol:FundMe",
        "label": "erc20Addr",
        "offset": 0,
        "slot": "5",
        "type": "t_address"
      },
      {
        "astId": 81,
        "contract": "contracts/FundMe.sol:FundMe",
        "label": "getFundSuccess",
        "offset": 20,
        "slot": "5",
        "type": "t_bool"
      }
    ],
    "types": {
      "t_address": {
        "encoding": "inplace",
        "label": "address",
        "numberOfBytes": "20"
      },
      "t_bool": {
        "encoding": "inplace",
        "label": "bool",
        "numberOfBytes": "1"
      },
      "t_contract(AggregatorV3Interface)45": {
        "encoding": "inplace",
        "label": "contract AggregatorV3Interface",
        "numberOfBytes": "20"
      },
      "t_mapping(t_address,t_uint256)": {
        "encoding": "mapping",
        "key": "t_address",
        "label": "mapping(address => uint256)",
        "numberOfBytes": "32",
        "value": "t_uint256"
      },
      "t_uint256": {
        "encoding": "inplace",
        "label": "uint256",
        "numberOfBytes": "32"
      }
    }
  }
}